:100000000C940C080C9453080C9453080C9453084B
:100010000C9453080C9453080C9453080C945308F4
:100020000C9453080C9453080C94C0220C94932302
:100030000C94CD190C9453080C9453080C94530849
:100040000C9453080C9453080C9453080C945308C4
:100050000C9453080C942E1A0C9453080C945308C7
:100060000C9453080C9453080C9453080C945308A4
:100070000C9453080C9453080C9453080C94530894
:100080000C9453080C9453080C9453080C94530884
:100090000C9453080C9453080C9453080C94530874
:1000A0000C9453080C9453080C94530829003B00FB
:1000B0003D003F0041004300450049004A004B001D
:1000C00046003A003C003E004000420044002A0046
:1000D0004C004D004E00470035001F00210023005A
:1000E00025002700000053005400550048001E0062
:1000F00020002200240026002D002E005F0060005A
:10010000610056002B001A0015001C000C001300A3
:1001100030005C005D005E0057001400080017000E
:10012000180012002F00310059005A005B00000037
:100130003900160009000B000E00330028000000F3
:10014000620063005800040007000A000D000F0061
:1001500034000000E000E200E600A800E1001D001D
:100160000600050010003700E500E3002C00000049
:10017000E40000001B0019001100360038000000E8
:100180005200500051004F00010001000100010029
:100190000100010001000100010001000100010057
:1001A0000100010001000100010001000100010047
:1001B0000100010001000100010001000100010037
:1001C0000000010001000100010001000100010028
:1001D0000100010001000100010001000100010017
:1001E0000100010001000100010001000100010007
:1001F00001000100010001000100010001000100F7
:1002000001000100010001000100000001000100E7
:1002100001000100010001000100000001000100D7
:1002200001000100010001000100010001000000C7
:1002300001000100010001000100010001000100B6
:1002400001000100010001000100000001000000A8
:100250000100010001000100010000000100010097
:100260000100010001000100010001000100010086
:100270000100010001000100010001000100010076
:100280000100010001000100010001000100010066
:100290000100010001000100010001000000010057
:1002A0000100010001000100010001000100010046
:1002B0000100010001000100010001000100010036
:1002C0000100010001000100010001000100010026
:1002D0000100010001000100010001000100010016
:1002E0000100010001000000010001000100010007
:1002F00001000100010000000100010001000100F7
:1003000001000100010001000100000001000100E6
:1003100001000100010001000100010001000100D5
:1003200001000100010000000100000001000100C7
:1003300001000100010000000100010001000100B6
:1003400001000100010001000100010001000100A5
:100350000100010001000100010001000100010095
:100360000100010001000100010001000100010085
:100370000100010001000100000001000100010076
:100380000100010001000100010001000100010065
:100390000100010001000100010001000100010055
:1003A0000100010001000100010001000100010045
:1003B0000100010001000100010001000100010035
:1003C0000100000001000100010001000100010026
:1003D0000100000001000100010001000100010016
:1003E0000100010001000000010001000100010006
:1003F00001000100010001000100010001000100F5
:1004000001000000010000000100010001000100E6
:1004100001000000010001000100010001000100D5
:1004200001000100010001000100010001000100C4
:1004300001000100010001000100010001000100B4
:1004400001000100010001000100010001000100A4
:100450000100010000000100010001000100010095
:100460000100010001000100010001000100010084
:100470000100010001000100010001000100010074
:100480000100010001000100010001000100010064
:100490000100010001000100010001000100000055
:1004A0000100010001000100010001000100000045
:1004B0000100010001000100010001000100010034
:1004C0000100000001000100010001000100010025
:1004D0000100010001000100010001000100000015
:1004E0000100000001000100010001000100000006
:1004F00001000100010001000100010001000100F4
:1005000001000100010001000100010001000100E3
:1005100001000100010001000100010001000100D3
:1005200001000100010001000100010001000100C3
:1005300000000100010001000100010001000100B4
:1005400001000100010001000100010001000100A3
:100550000100010001000100010001000100010093
:100560000100010001000100010001000100010083
:100570000100010001000100010000000100010074
:100580000100010001000100010000000100010064
:100590000100010001000100010001000100000054
:1005A0000100010001000100010001000100010043
:1005B0000100010001000100010000000100000035
:1005C0000100010001000100010000000100010024
:1005D0000100010001000100010001000100010013
:1005E0000100010001000100010001000100010003
:1005F00001000100010001000100010001000100F3
:1006000001000100010001000100010000000100E3
:1006100001000100010001000100010001000100D2
:1006200001000100010001000100010001000100C2
:1006300001000100010001000100010001000100B2
:1006400001000100010001000100010001000100A2
:100650000100010001000000010001000100010093
:100660000100010001000000010001000100010083
:100670000100010001000100010000000100010073
:100680000100010001000100010001000100010062
:100690000100010001000000010000000100010054
:1006A0000100010001000000010001000100010043
:1006B0000100010001000100010001000100010032
:1006C0000100010001000100010001000100010022
:1006D0000100010001000100010001000100010012
:1006E0000100010001000100000001000100010003
:1006F00001000100010001000100010001000100F2
:1007000001000100010001000100010001000100E1
:1007100001000100010001000100010001000100D1
:1007200001000100010001000100010001000100C1
:1007300001000000010001000100010001000100B2
:1007400001000000010001000100010001000100A2
:100750000100010001000000010001000100010092
:100760000100010001000100010001000100010081
:100770000100000001000000010001000100010073
:100780000100000001000100010001000100010062
:100790000100010001000100010001000100010051
:1007A0000100010001000100010001000100010041
:1007B0000100010001000100010001000100010031
:1007C0000100010000000100010001000100010022
:1007D0000100010001000100010001000100010011
:1007E0000100010001000100010001000100010001
:1007F00001000100010001000100010001000100F1
:1008000001000100010001000100010001000000E1
:1008100001000100010001000100010001000000D1
:1008200001000100010001000100010001000100C0
:1008300001000000010001000100010001000100B1
:1008400001000100010001000100010001000000A1
:100850000100000001000100010001000100000092
:100860000100010001000100010001000100010080
:100870000100010001000100010001000100010070
:100880000100010001000100010001000100010060
:100890000100010001000100010001000100010050
:1008A0000000010001000100010001000100010041
:1008B0000100010001000100010001000100010030
:1008C0000100010001000100010001000100010020
:1008D0000100010001000100010001000100010010
:1008E0000100010001000100010000000100010001
:1008F00001000100010001000100000001000100F1
:1009000001000100010001000100010001000000E0
:1009100001000100010001000100010001000100CF
:1009200001000100010001000100000001000000C1
:1009300001000100010001000100000001000100B0
:10094000010001000100010001000100010001009F
:10095000010001000100010001000100010001008F
:10096000010001000100010001000100010001007F
:100970000100010001000100010001000000010070
:10098000010001000100010001000100010001005F
:10099000010001000100010001000100010001004F
:1009A000010001000100010001000100010001003F
:1009B000010001000100010001000100010001002F
:1009C0000100010001000000010001000100010020
:1009D0000100010001000000010001000100010010
:1009E0000100010001000100010000000100010000
:1009F00001000100010001000100010001000100EF
:100A000001000100010000000100000001000100E0
:100A100001000100010000000100010001000100CF
:100A200001000100010001000100010001000100BE
:100A300001000100010001000100010001000100AE
:100A4000010001000100010001000100010001009E
:100A5000010001000100010000000100010001008F
:100A6000010001000100010001000100010001007E
:100A7000010001000100010001000100010001006E
:100A8000010001000100010001000100010001005E
:100A9000010001000100010001000100010001004E
:100AA000010000000100010001000100010001003F
:100AB000010000000100010001000100010001002F
:100AC000010001000100000001000100010001001F
:100AD000010001000100010001000100010001000E
:100AE0000100000001000000010001000100010000
:100AF00001000000010001000100010001000100EF
:100B000001000100010001000100010001000100DD
:100B100001000100010001000100010001000100CD
:100B200001000100010001000100010001000100BD
:100B300001000100000001000100010001000100AE
:100B4000010001000100010001000100010001009D
:100B5000010001000100010001000100010001008D
:100B6000010001000100010001000100010001007D
:100B7000010001000100010001000100010000006E
:100B8000010001000100010001000100010000005E
:100B9000010001000100010001000100010001004D
:100BA000010000000100010001000100010001003E
:100BB000010001000100010001000100010000002E
:100BC000010000000100010001000100010000001F
:100BD000010001000100010001000100010001000D
:100BE00001000100010001000100010001000100FD
:100BF00001000100010001000100010001000100ED
:100C000001000100010001000100010001000100DC
:100C100000000100010001000100010001000100CD
:100C200001000100010001000100010001000100BC
:100C300001000100010001000100010001000100AC
:100C4000010001000100010001000100010001009C
:100C5000010001000100010001000000010001008D
:100C6000010001000100010001000000010001007D
:100C7000010001000100010001000100010000006D
:100C8000010001000100010001000100010001005C
:100C9000010001000100010001000000010000004E
:100CA000010001000100010001000000010001003D
:100CB000010001000100010001000100010001002C
:100CC000010001000100010001000100010001001C
:100CD000010001000100010001000100010001000C
:100CE00001000100010001000100010000000100FD
:100CF00001000100010001000100010001000100EC
:100D000001000100010001000100010001000100DB
:100D100001000100010001000100010001000100CB
:100D200001000100010001000100010001000100BB
:100D300001000100010000000100010001000100AC
:100D4000010001000100000001000100010001009C
:100D5000010001000100010001000000010001008C
:100D6000010001000100010001000100010001007B
:100D7000010001000100000001000000010001006D
:100D8000010001000100000001000100010001005C
:100D9000010001000100010001000100010001004B
:100DA000010001000100010001000100010001003B
:100DB000010001000100010001000100010001002B
:100DC000010001000100010000000100010001001C
:100DD000010001000100010001000100010001000B
:100DE00001000100010001000100010001000100FB
:100DF00001000100010001000100010001000100EB
:100E000001000100010001000100010001000100DA
:100E100001000000010001000100010001000100CB
:100E200001000000010001000100010001000100BB
:100E300001000100010000000100010001000100AB
:100E4000010001000100010001000100010001009A
:100E5000010000000100000001000100010001008C
:100E600001000000010001000100010012036B00FD
:100E70006500790062006F0061007200640000008C
:100E8000160371006D006B006200750069006C0054
:100E900064006500720000000403090409026D008B
:100EA000040100A0FA090400000103010100092166
:100EB000110100012240000705810308000A09040E
:100EC00001000103010200092111010001224D006E
:100ED0000705820308000A0904020001030000005C
:100EE0000921110100012236000705830308000AC9
:100EF000090403000103000000092111010001227F
:100F000039000705840320000112011001000000D0
:100F100008EDFE606001000102000105010906A163
:100F200001050719E029E7150025019508750181DC
:100F300002050819012905950575019102950175AC
:100F40000391010507190029F71500250195F8758A
:100F5000018102C005010980A10185021601002658
:100F600003001A81002A8300751095018100C005D5
:100F70000C0901A1018503160100269C021A01003B
:100F80002A9C02751095018100C005010902A1018A
:100F90000901A1000509190129051500250195057B
:100FA000750181029501750381010501093009313F
:100FB0001581257F95027508810609381581257FE1
:100FC000950175088106050C0A38021581257F9563
:100FD0000175088106C0C005010906A101050719B0
:100FE000E029E71500250195087501810295017535
:100FF00008810105081901290595057501910295DA
:1010000001750391010507190029FF150026FF004E
:10101000950675088100C00011241FBECFEFDAE0ED
:10102000DEBFCDBF04B603FE27C080918002909141
:101030008102A0918202B09183028730904BA74039
:10104000B04BD1F410928002109281021092820271
:101050001092830214BE84B7877F84BF0FB6F894C2
:10106000A895809160008861809360001092600074
:101070000FBEE0E0F8E3099511E0A0E0B1E0E0E0A8
:10108000FEE402C005900D92AC33B107D9F722E01F
:10109000ACE3B1E001C01D92A038B207E1F70E94B5
:1010A00016200C94D2260C94000090E080E0089565
:1010B0000895089581E0089580FF0BC0569A5E98C8
:1010C00081FF09C0579A5F9882FF07C0549A5C98C5
:1010D00008955698F4CF5798F6CF5498F8CF81E0FA
:1010E00008950C945A080E941E122FEF84E39CE08E
:1010F000215080409040E1F700C000000C94511A4C
:10110000EF92FF920F931F93CF93DF938C01FC011B
:10111000E080F18080919401811140C08281882318
:10112000C1F1C7010E94A317C82F682FC7010E94F1
:101130004C17B7018C2F0E94B809EC01B8010E942E
:101140007108882309F44BC0B801CE010E94C10B7D
:10115000882309F444C0C531F0E7DF0720F5C23029
:1011600080E7D80708F04DC0C115E0E7DE0791F130
:10117000C130D047E1F181E080933E0180933F018F
:10118000C801DF91CF911F910F91FF90EF900C94C8
:101190006F08C7010E947A17C82FCBCFC7010E94E2
:1011A000A317B701C8CFCC3380E7D80709F49BC099
:1011B000CD33D04701F7F8018281882309F4BAC002
:1011C00010923F010E94FD1990933D0180933C01D4
:1011D00080E296C0F801828181110E94730880E04C
:1011E000DF91CF911F910F91FF90EF900895F8013B
:1011F00082818823A1F38091400281608093400224
:10120000EECFF8018281882309F4BACF0E945E19DB
:10121000811102C00E9444190E947B1990E09093B2
:10122000720280937102FE01E350F04780917102D7
:101230008160E231F10538F4EC52F94D0C948226CC
:1012400080917102826080937102809171020E948C
:101250007F190E941E12C3CF809171028460F3CF68
:10126000809171028860EFCF809171028061EBCF35
:10127000809171028062E7CF809171028064E3CF38
:10128000809171028068DFCF809171028C60DBCF2A
:10129000809171028E7FD7CF809171028D7FD3CFE5
:1012A000809171028B7FCFCF80917102877FCBCFEE
:1012B000809171028F7EC7CF809171028F7DC3CFE5
:1012C000809171028F7BBFCF809171028F77BBCFEE
:1012D00080917102837FB7CF90917102892F97FB24
:1012E00087F98058B0CFF8018281882361F010928D
:1012F0003E010E94FD1990933D0180933C0182E0E4
:101300000E94830F6CCF80913E0181110FC08091AC
:101310003C0190913D010E94091A883C910530F4EE
:1013200086E20E94580E86E20E94340F82E00E94FC
:101330008A0F55CF80913F0181110FC080913C01F0
:1013400090913D010E94091A883C910530F487E292
:101350000E94580E87E20E94340F80E2E8CF0C947E
:10136000100C0C94120C0C945C080C94B3090895A6
:10137000972F70E02BE0929F600D711D1124FB01EF
:101380009EE6899FE00DF11D1124EE0FFF1FE4552D
:10139000FF4F859194910895FC01EE0FFF1FE459D2
:1013A000F14F8591949108950E94B8090E94450BD0
:1013B0009C01811540E4940708F097C0211580E353
:1013C000380708F0FAC0203E310508F074C0203C10
:1013D000310508F0E5C0283A310588F4253A310591
:1013E00008F0E2C02130310509F477C0C901049743
:1013F000813A910508F471C030E020E06EC0C90167
:10140000885A91094597C0F7283A310509F4FEC07A
:10141000293A310509F4FDC02A3A310509F4FCC026
:101420002B3A310509F4FBC02C3A310509F4FAC016
:101430002B3B310509F4F9C02C3B310509F4F8C008
:101440002D3A310509F4F7C0203B310509F4F6C007
:101450002E3A310509F4F5C02F3A310509F4F4C0EC
:10146000213B310509F4F3C0223B310509F4F2C0F8
:10147000233B310509F4F1C0243B310509F4F0C0E8
:10148000253B310509F4EFC0263B310509F4EEC0D8
:10149000273B310509F4EDC0283B310509F4ECC0C8
:1014A000293B310509F4EBC02A3B310509F4EAC0B8
:1014B00020E034E412C0211590E2390780F42F3F78
:1014C000310509F050F4283E310538F0C901805F3C
:1014D00091093065409708F08FCFC9010895C9017F
:1014E0009F700E94CC099C01F8CF8115944508F0AB
:1014F00041C0211583E5380708F06AC0211592E53F
:10150000390738F5211541E5340708F05CC021158D
:1015100080E5380708F454C0C90134E096958795F2
:101520003A95E1F78370422F46954695437090E2D5
:10153000499FA0011124582B822F837021E030E0B5
:1015400002C0220F331F8A95E2F7242B352B3C680B
:10155000C4CFC9018370992741E050E002C0440F15
:10156000551F8A95E2F72695269580E2289F9001DF
:101570001124EBCF211596E5390748F4922F8827DF
:1015800021153545C8F59C01246F306AA6CFC901E5
:1015900090563F708115904108F02ECF30629DCF5C
:1015A000C901805C91099DCF253A310549F1263A60
:1015B000310549F522E830E490CF3327306C8DCFE8
:1015C0003F70306A8ACF322F2227216F306A85CF51
:1015D000C9018370992741E050E002C0440F551FB4
:1015E0008A95E2F72695269580E2289F900111249E
:1015F000242B352B3A6871CF88279F719C01CECF61
:1016000021E830E46ACF23E830E467CF22EE34E407
:1016100064CF29EE34E461CF2AEE34E45ECF25EBCB
:1016200034E45BCF26EB34E458CF23EB34E455CFDE
:1016300024EB34E452CF27EB34E44FCF2CEC34E4EA
:101640004CCF2DEC34E449CF23E835E446CF2AE8EB
:1016500035E443CF22E935E440CF24E935E43DCFFA
:1016600021E236E43ACF23E236E437CF24E236E40F
:1016700034CF25E236E431CF26E236E42ECF27E21E
:1016800036E42BCF2AE236E428CF803E910581F163
:10169000C8F48133910509F462C048F48932910598
:1016A00009F456C08A32910509F460C0089589335F
:1016B0009105B9F082389105A1F08533910509F4BF
:1016C00040C00895863E910561F138F4823E91054F
:1016D000B1F0833E9105E1F00895873E910551F107
:1016E0000895209171022370D9F080EE90E0089562
:1016F0002091710220FF14C089E390E008952091A9
:10170000710222FF0DC024FD09C083EE90E0089510
:101710002091710222FD31C024FF02C090E080E0E0
:1017200008952091710223FFFBCF24FDF7CF87EEB0
:1017300090E008952091710223FFEECF86EE90E0B5
:1017400008952091710225FFEBCF89E290E0089582
:101750002091710225FFE4CF85E390E00895209168
:10176000710226FFDDCF8AE290E008952091710298
:1017700026FFD6CF81E390E0089582EE90E00895B1
:1017800008950F931F93CF938C01FB0182818111E8
:1017900006C0C1E08C2FCF911F910F910895C09189
:1017A0004D01C11125C00531104799F70E94C00BAA
:1017B00081E080934D010E94FD1990934C0180932C
:1017C0004B0110924001109242011092410110927F
:1017D000440110924301109246011092450110926B
:1017E00048011092470110924A0110924901D2CF4C
:1017F00080914B0190914C010E94091A883C9105FF
:1018000040F680914001E82FF0E0EE0FFF1FEF5B04
:10181000FE4F118300838F5F80934001C0E0BACFF9
:101820000C9458080C94590885B7806885BF85B713
:10183000806885BFAEE1B1E061E070E08D91E82F96
:10184000E295EF70F0E041A18F709B0101C0220F83
:101850008A95EAF7922F9095942391A382A1822BE7
:1018600082A381E0A832B80749F7A3E1B1E061E0C3
:1018700070E08D91E82FE295EF70F0E041A18F705C
:101880009B0101C0220F8A95EAF7922F909594232D
:1018900091A382A1822B82A381E0AE31B80749F7E0
:1018A000E2E6F1E0AEE4B1E086E791E01192119258
:1018B0001D921D928E179F07C9F70C94AF092F92A6
:1018C0003F924F925F926F927F928F929F92AF92D0
:1018D000BF92CF92DF92EF92FF920F931F93CF931D
:1018E000DF930EE411E08EE1C82E81E0D82E1801BE
:1018F000EE24E394F12C66246394D1018D909D90A5
:101900001D011E921E92E60189916E01E82FE2955B
:10191000EF70F0E091A18F70970101C0220F8A95BE
:10192000EAF7892F822B81A382A1722E70948721DE
:1019300082A3D0EADA95F1F763E171E090E080E00C
:10194000EB015990BE01452D42954F7050E0EA01E0
:1019500048A0AD90BC901197552D5F70E70102C073
:10196000CC0FDD1F5A95E2F7AE01442109F059C0B2
:10197000A701082E02C0440F551F0A94E2F74A2916
:101980005B2911965C934E9301968B309105C1F6BD
:1019900081A1782271A282A1282B22A38D919C91F2
:1019A0008816990641F0609276010E94FD19909385
:1019B000780180937701D2E62D16D1E03D0609F03B
:1019C0009CCF809176018823B1F08091770190912E
:1019D00078010E94091A069770F0E2E6F1E0D8015A
:1019E0008D919D918D0181939193B1E002361B07FA
:1019F000B1F7109276010E94B10981E0DF91CF9199
:101A00001F910F91FF90EF90DF90CF90BF90AF901C
:101A10009F908F907F906F905F904F903F902F900E
:101A2000089550E040E0ABCFE82FF0E0EE0FFF1F4D
:101A3000EE59FE4F808191810895089590937E0123
:101A400080937D010895E0917D01F0917E013097B2
:101A500021F00190F081E02D099480E00895E0915B
:101A60007D01F0917E01309721F00280F381E02D1D
:101A700009940895E0917D01F0917E01309721F065
:101A80000480F581E02D0994089520917B01309127
:101A90007C012817390771F090937C0180937B01BA
:101AA000E0917D01F0917E01309721F00680F78171
:101AB000E02D099408952091790130917A01281739
:101AC000390771F090937A0180937901E0917D015B
:101AD000F0917E01309721F00084F185E02D09948A
:101AE000089508950C94710D0E94F4190E94140C2D
:101AF0000C94BE1A5F926F927F928F929F92AF92D8
:101B0000BF92CF92DF92EF92FF920F931F93CF93EA
:101B1000DF9300D000D00F92CDB7DEB70E945F0CEC
:101B200090E8A92E91E0B92E10E000E0882483947B
:101B3000912C502E802F0E94140D7C01F501C19034
:101B4000D1905F01C816D90609F45DC080914002AA
:101B500081FD0E941D0D90E080E0CE24DF24340141
:101B6000082E02C0660C771C0A94E2F79601262123
:101B70003721232B09F442C089835A82E620F720BB
:101B800081E0EF2809F480E08B830E94FD198160D9
:101B9000782F9D838C8349815A816B818D810E942E
:101BA0002F0E000F111FF801E058FE4F8081918128
:101BB00068267926718260820E946B1D0E94230D27
:101BC00090917F018917B1F10E94230D80937F01CD
:101BD0000F900F900F900F900F90DF91CF911F916A
:101BE0000F91FF90EF90DF90CF90BF90AF909F90BC
:101BF0008F907F906F905F900C94B50901968B3019
:101C0000910509F0ACCF0F5F1F4F0A30110509F0A5
:101C100090CF8FEF89838A831B820E94FD19816098
:101C2000782F9D838C8349815A816B818D810E949D
:101C30002F0EC2CF0F900F900F900F900F90DF914B
:101C4000CF911F910F91FF90EF90DF90CF90BF90B9
:101C5000AF909F908F907F906F905F900895CF93FB
:101C6000DF93CDB7DEB72B970FB6F894DEBF0FBE6C
:101C7000CDBF4F83588769877A878B871E8285E01F
:101C8000FE013796DE01119601900D928A95E1F7DB
:101C900049815A816B817C818D819E812B960FB603
:101CA000F894DEBF0FBECDBFDF91CF910C94A61488
:101CB000882309F4D8C0823871F40E94230D81FD75
:101CC000D2C089E30E944B180E94151989E30E9433
:101CD00088180C941519833859F40E94230D80FD3F
:101CE000C2C083E50E944B180E94151983E5EFCF0F
:101CF000843859F40E94230D82FDB5C087E40E9408
:101D00004B180E94151987E4E2CF9CEF980F913A87
:101D100018F40E944B18DDCF90E2980F983050F4E1
:101D2000877091E001C0990F8A95EAF7892F0E9488
:101D3000CC18CFCF9BE5980F933070F4853A31F0F3
:101D4000863A39F083E890E00C94450D81E890E004
:101D5000FBCF82E890E0F8CF98E5980F953108F036
:101D600082C0883A09F440C0893A09F440C08A3AEE
:101D700009F440C08B3A09F440C08C3A09F440C0E1
:101D80008B3B09F440C08C3B09F440C08D3A09F408
:101D900040C0803B09F440C08E3A09F440C08F3AFD
:101DA00009F440C0813B09F440C0823B09F440C0C3
:101DB000833B09F440C0843B09F440C0853B09F4EF
:101DC00040C0863B09F440C0873B09F440C0883BD3
:101DD00009F440C0893B09F440C08A3B09F440C083
:101DE00090E080E00C945B0D82EE90E0FBCF89EEFA
:101DF00090E0F8CF8AEE90E0F5CF85EB90E0F2CF5F
:101E000086EB90E0EFCF83EB90E0ECCF84EB90E0BB
:101E1000E9CF87EB90E0E6CF8CEC90E0E3CF8DEC60
:101E200090E0E0CF83E891E0DDCF8AE891E0DACF7F
:101E300082E991E0D7CF84E991E0D4CF81E292E0CA
:101E4000D1CF83E292E0CECF84E292E0CBCF85E2A5
:101E500092E0C8CF86E292E0C5CF87E292E0C2CF9F
:101E60008AE292E0BFCF0895882309F44BC08238FC
:101E700071F40E94230D81FF45C089E30E944B1835
:101E80000E94151989E30E9488180C94151983384B
:101E900059F40E94230D80FF35C083E50E944B1842
:101EA0000E94151983E5EFCF843859F40E94230D61
:101EB00082FF28C087E40E944B180E94151987E40E
:101EC000E2CF9CEF980F913AF0F290E2980F9830A1
:101ED00050F4877091E001C0990F8A95EAF7892F35
:101EE0000E94D218D2CF9BE5980F933020F490E057
:101EF00080E00C94450D885A853120F490E080E014
:101F00000C945B0D0895882321F00E94CC180C944A
:101F100015190895882321F00E94D2180C941519E0
:101F200008958F929F92AF92BF92DF92EF92FF92AD
:101F30000F931F93CF93DF9300D000D00F92CDB7B4
:101F4000DEB77C016D837983FC01058102950F70FA
:101F5000128111110E94EB180E944418D82E882378
:101F600071F01123A1F08D81805E883080F082E0D5
:101F70000E942E180E94441891E0D82ED926E9819B
:101F8000E295EF70F0E0EA51F94D0C948226D12CE5
:101F9000F6CF09810F70F981F07F11F00295007F73
:101FA0001123B1F0002361F08D81805E883018F03C
:101FB0002D81211109C0802F0E94CC180E94151973
:101FC0008D810E94580E15C0802F0E94DD18F6CF1B
:101FD0008D810E94340F002361F08D81805E8830F6
:101FE00018F03D81311129C0802F0E94D2180E9423
:101FF0001519DD2009F4D3C10E94211880FDCFC13D
:10200000F70112820E941B180E946416C7010E94E9
:10201000E0110E941B180F900F900F900F900F90DF
:10202000DF91CF911F910F91FF90EF90DF90BF90C4
:10203000AF909F908F900C948616802F0E94E3188B
:10204000D6CF49814F70B42E5981507F503219F04C
:10205000B29480EFB8228D81882369F0813029F114
:10206000112369F1002359F0F701858180FFA8CF82
:102070008F70858304C0112361F0011104C08B2D82
:102080000E94830FB6CF8B2D0130D1F70E94FF182D
:10209000B0CF011106C00E9402198B2D0E948A0F39
:1020A000A8CF013009F4A5CFF6CF112321F00630D7
:1020B00008F09FCFE4CF053008F09BCFEECF002390
:1020C00061F38D810E94340F94CF89818695869526
:1020D000837069F0813009F08CCF8D819981937084
:1020E000111102C090E080E00E945B0D82CF8D81D3
:1020F00099819370111102C090E080E00E94450D1B
:1021000078CF8D81112329F00E94791C0E94601DD7
:1021100070CF0E94E11CFACF8981837009F05FC003
:10212000111167CF2D81229526952770220F220F3E
:102130008D818F7090E0B0E0A0E04C015D01022E37
:1021400004C0880C991CAA1CBB1C0A94D2F7FD8100
:1021500060E070E0CB01F4FF0FC06FE070E080E062
:1021600090E004C0660F771F881F991F2A95D2F749
:102170006095709580959095298126952695237078
:102180002D832230B1F0233019F19B01AC012829B5
:1021900039294A295B2929833A834B835C833D8112
:1021A00069817A818B819C813130B1F00E94F11577
:1021B00020CF9B01AC01282939294A295B29298391
:1021C0003A834B835C83CA01B9010E941B1611CF6D
:1021D0000E94F115C501B4010E94C7150ACF86956A
:1021E000112311F089818170882309F402CF2D8198
:1021F000229526952770220F220F8D818F7090E0F7
:10220000B0E0A0E04C015D01022E04C0880C991CD6
:10221000AA1CBB1C0A94D2F73D8160E070E0CB01A0
:1022200034FF0FC06FE070E080E090E004C0660F04
:10223000771F881F991F2A95D2F760957095809512
:10224000909549814695469543704D834230B1F053
:10225000433019F19B01AC01282939294A295B290E
:1022600029833A834B835C833D8169817A818B81A9
:102270009C813130B1F00E94F716BBCE9B01AC01BE
:10228000282939294A295B2929833A834B835C838E
:10229000CA01B9010E942117ACCE0E94F716C501F0
:1022A000B4010E94CD16A5CE3D81323F09F447C04E
:1022B00080F4303F79F1313FD9F1832F805E803156
:1022C000D0F0112309F456C001117ACE89818F71A3
:1022D00033C04D81433FD1F1443F99F7112309F4B5
:1022E0003FC089818F7189830E94641663E0898170
:1022F0000E9425187ECE5D815F705D8389818F711C
:10230000112321F00E9464168D81BACE0E94861698
:102310008D81C4CE112341F0053008F06ACE898149
:102320008F710E94AB1665CE063008F062CEF7CFF3
:1023300089818F71112339F00E9464165ACE8981E8
:102340008F711123C9F30E94861653CE112329F0F1
:1023500089818F710E944F164CCE0E94451649CE3E
:1023600081E00E942E18023008F443CE82E00E94E1
:102370002E183FCE0111A5CE89818F71E4CF4981FE
:102380004F706D81C7010E9455080E94401531CEE3
:1023900049814F706D81C7010E94B7092ACE0F9005
:1023A0000F900F900F900F90DF91CF911F910F9191
:1023B000FF90EF90DF90BF90AF909F908F90089527
:1023C0000F931F93CF93DF93EC018B819C81892B1B
:1023D00029F08881998189238F3F29F4DF91CF915A
:1023E0001F910F910895CE010E9480088823B1F3B8
:1023F000688179818A810E94F1178C010E944B17B4
:102400000E94BC15B801CE01DF91CF911F910F91B1
:102410000C94910F0E94EB180E94FC180E94BE18A9
:102420000E9415190E94511E0E94601D90E080E0DC
:102430000E94450D90E080E00C945B0D0E94DA183C
:102440000C940A120E94E517282F892F82958F700D
:10245000903C80F48A30B0F4843020F4823090F4E0
:1024600080E008958630E1F781E0203E88F0213F4A
:10247000B9F70EC08C3011F08F3091F793FB88279D
:1024800080F9089581E0203F39F018F4203E40F7AC
:102490000895243F29F7FCCF0895CF93DF9300D010
:1024A00000D00F92CDB7DEB70F900F900F900F9026
:1024B0000F90DF91CF910895CF93DF9300D000D09C
:1024C00000D0CDB7DEB726960FB6F894DEBF0FBEAC
:1024D000CDBFDF91CF9108951F93CF93DF93E0910C
:1024E000950116E0809196018E1304C0DF91CF9183
:1024F0001F910895CE2FD0E01E9FF0011124E956C0
:10250000FE4F4081518162817381848195810E9457
:102510005C12FE013196E770E5CF4091C701509102
:10252000C8016091C9017091CA018091CB0190915D
:10253000CC010C945C121F93CF93DF938091CC015C
:10254000807FC1F48091C9018823A1F08091950119
:10255000C09196016091C7017091C8014091CA0174
:102560005091CB01D62FD723DA01A095B09516E074
:10257000C81304C0DF91CF911F91089590E04115D9
:10258000510511F0DF3F31F401968770F1CF2A0F2A
:102590003B1F17C0189FF001199FF00D1124E95639
:1025A000FE4F21812713F0CF20812613EDCF22810A
:1025B0002111EACF238134812417350740F3241BEE
:1025C000350B283C310500F72091CC012F7020619C
:1025D0002093CC0126E0289FF001299FF00D1124C3
:1025E000E456FE4F80818F708061808387EC91E09C
:1025F0000E94E011DF91CF911F910C946C129F9279
:10260000AF92BF92CF92DF92EF92FF920F931F9300
:10261000CF93DF93CDB7DEB72B970FB6F894DEBF1D
:102620000FBECDBF8C0185E0F801DE011796019049
:102630000D928A95E1F7D8014C9111965C91119712
:102640001296EC9012978091CA019091CB0100975D
:1026500009F46BC12091C7013091C801632F622337
:102660006F3F09F462C11396CD90DC909090C90140
:10267000992009F4F8C0C816D90608F43FC0F6013D
:10268000E81BF90BCF01FF24F394883C910508F077
:10269000F12C87ECA82E81E0B82E8091CC01982FE8
:1026A000907FFF2009F4B7C0911180C0FE2C351334
:1026B0002AC0241328C0E11026C08F708061809347
:1026C000CC010E948D12C5010E94E0118091CC01C5
:1026D000D80115968C938F2D2B960FB6F894DEBFEC
:1026E0000FBECDBFDF91CF911F910F91FF90EF9063
:1026F000DF90CF90BF90AF909F9008958095909578
:102700008C0D9D1DC0CFCD2829F0842F85238F3FB0
:1027100009F019C180E0B82FB170DB2EE09195016E
:102720002091960136E080FD1CC0EE20A1F2809140
:10273000CC0181608093CC01F12CCDCF8E2F90E025
:102740003E9FF0011124E956FE4F6181651306C0DA
:102750006081641303C062816E11E7CFFC01319682
:10276000E770E213EBCF4F8358878F8198850E94E3
:10277000E517292F22952F70903260F0225F2F707D
:10278000223078F49F7051F0F8019581907F31F4F8
:10279000D12C0AC09F7011F08823D1F3805E88305D
:1027A000B8F3C8010E94E011FD2C95CF351306C087
:1027B000241304C0D801EE2009F47BC04F8358874E
:1027C0008F8198850E942212882309F4B8C0EE20D8
:1027D00009F4B5C08091CC01803270F02091C7011E
:1027E0003091C8013A8329831B82DD82CC828E839B
:1027F000CE0101960E94E01186E0F801A7ECB1E05D
:1028000001900D928A95E1F70E949B120E948D1211
:10281000FF24F39460CF911113C07C2DDB86CA8610
:102820006E2D8B850E944D1287EC91E00E94E01185
:1028300086E0F50111928A95E9F70E948D124BCF3F
:102840003513BCCF2413BACFE110B8CFD8011596F9
:102850008C93C8010E94E01186E0F50111928A95DF
:10286000E9F7F92C38CFC816D90688F1B601681BEC
:10287000790BCB01F12C883C910508F047C0FE2C68
:10288000EE2009F45CC0351330C024132EC08091B3
:10289000CC0180FD21C0982F907FF1F0D8011596D2
:1028A0008C931597903F39F0982F907F905F8F70A1
:1028B000892B15968C93C8010E94E01186E0F801DF
:1028C000A7ECB1E001900D928A95E1F7B6CF809523
:1028D00090958C0D9D1DCECF86E0F801A7ECB1E060
:1028E00001900D928A95E1F7F6CE4F8358878F813C
:1028F00098850E94221281117FCF8091CC01816046
:102900008093CC01C8010E94E011E5CE7C2DDB86CE
:10291000CA866E2D8B850E944D1286E0E7ECF1E0B1
:10292000DF011D928A95E9F788CFEE2041F04F83B1
:1029300058878F8198850E94221281115DCFC8012E
:102940000E94E01165CF81E08E25E5CE1F93CF93E5
:10295000DF93CDB7DEB72C970FB6F894DEBF0FBE6E
:10296000CDBF4F83588769877A878B879C87CE0135
:1029700007960E94FF12882369F08A859B85892B20
:1029800039F04F815885842F85238F3F09F071C01E
:1029900016E05FC086E0FE013796DE0111960190D9
:1029A0000D928A95E1F78A859B85892B89F3888525
:1029B0009F8189238F3F61F32091960130E0C90107
:1029C000019687709927409195014817190671F46F
:1029D0000E941E12109296011092950186E0E7EC7B
:1029E000F1E0DF011D928A95E9F7D2CF96E0929F40
:1029F000D001939FB00D1124A956BE4FFE01319610
:102A000001900D929A95E1F7809396010E946C12C5
:102A1000BFCF819FC001112489569E4F0E94FF1293
:102A20008823E9F0E09195011E9FF0011124E956F9
:102A3000FE4F4081518162817381848195810E9422
:102A40005C128091950190E00196877099278093A0
:102A5000950180919501909196018913DACF2C967A
:102A60000FB6F894DEBF0FBECDBFDF91CF911F919F
:102A7000089569857A858B859C850E945C1288CF34
:102A8000EF92FF920F931F93CF93DF938C01892BCB
:102A900089F0F12CEE24E394E8012196F801849169
:102AA000843709F457C0A0F4823009F43EC048F4DA
:102AB0008130D1F0DF91CF911F910F91FF90EF9076
:102AC00008959CEF980F9037A8F70E94580E0AC0FF
:102AD000853709F44CC09CE7980F903758F78F77EB
:102AE0000E94340F8E0116C00E5F1F4FFE018491AD
:102AF00090E2980F983060F48770FE2D01C0FF0FB0
:102B00008A95EAF78F2F0E94EE180E94151902C0CD
:102B10000E94580E8F2D815008F4BECFEFE9FFE0E0
:102B20003197F1F700C00000F6CF0E5F1F4FFE0196
:102B3000849190E2980F983050F48770FE2D01C078
:102B4000FF0F8A95EAF78F2F0E94F418DECF0E94BC
:102B5000340FE0CF0E5F1F4FFE01C491C150D0F281
:102B60008FE99FE00197F1F700C00000F7CF0E5FFB
:102B70001F4FFE01F490CECF08956093170270931B
:102B800018028093190290931A020C940A12CF93A0
:102B9000DF9300D000D0CDB7DEB769837A838B8313
:102BA0009C838091170290911802A0911902B09114
:102BB0001A0229813A814B815C81822B932BA42BB1
:102BC000B52B8093170290931802A0931902B0932B
:102BD0001A020F900F900F900F90DF91CF910C94ED
:102BE0000A12CF93DF9300D000D0CDB7DEB7698350
:102BF0007A838B839C838091170290911802A09115
:102C00001902B0911A0229813A814B815C81822399
:102C10009323A423B5238093170290931802A093C3
:102C20001902B0931A020F900F900F900F90DF913E
:102C3000CF910C940A12CF93DF9300D000D0CDB780
:102C4000DEB769837A838B839C838091170290918E
:102C50001802A0911902B0911A0229813A814B8180
:102C60005C8182279327A427B5278093170290932E
:102C70001802A0931902B0931A020F900F900F90B0
:102C80000F90DF91CF910C940A12109213021092C0
:102C9000140210921502109216020C940A1241E0CE
:102CA00050E060E070E004C0440F551F661F771FBE
:102CB0008A95D2F740931302509314026093150241
:102CC000709316020C940A12282F81E090E0A0E085
:102CD000B0E004C0880F991FAA1FBB1F2A95D2F726
:102CE00040911302509114026091150270911602E6
:102CF000842B952BA62BB72B809313029093140251
:102D0000A0931502B09316020C940A1241E050E011
:102D100060E070E004C0440F551F661F771F8A955E
:102D2000D2F74095509560957095809113029091DF
:102D30001402A0911502B091160284239523A623B4
:102D4000B7238093130290931402A0931502B093BB
:102D500016020C940A12282F81E090E0A0E0B0E067
:102D600004C0880F991FAA1FBB1F2A95D2F7409154
:102D7000130250911402609115027091160284277B
:102D80009527A627B7278093130290931402A09348
:102D90001502B09316020C940A12CF93DF9300D061
:102DA00000D0CDB7DEB769837A838B839C83809113
:102DB000130290911402A0911502B091160229817C
:102DC0003A814B815C81822B932BA42BB52B809372
:102DD000130290931402A0931502B09316020F9061
:102DE0000F900F900F90DF91CF910C940A12CF9318
:102DF000DF9300D000D0CDB7DEB769837A838B83B1
:102E00009C838091130290911402A0911502B091BD
:102E1000160229813A814B815C8182239323A4236A
:102E2000B5238093130290931402A0931502B093DC
:102E300016020F900F900F900F90DF91CF910C948E
:102E40000A12CF93DF9300D000D0CDB7DEB76983ED
:102E50007A838B839C838091130290911402A091BA
:102E60001502B091160229813A814B815C8182273B
:102E70009327A427B5278093130290931402A0935D
:102E80001502B09316020F900F900F900F90DF91E4
:102E9000CF910C940A120895E82F2BE0929FE00D39
:102EA00011248E2F877041E001C0440F8A95EAF704
:102EB000E695E695E69585E0E89FF0011124E35359
:102EC000FE4F30E020E070E05191DF011197CB011F
:102ED000022E02C0969587950A94E2F7817081953B
:102EE0008527842385278C932F5F3F4F253031051D
:102EF00059F70895E82F2BE0929FE00D11249E2FA3
:102F00009770E695E695E69585E0E89FF001112437
:102F1000E353FE4F50E040E080E0219130E0092E85
:102F200002C0369527950A94E2F721703327042EC4
:102F300001C0220F0A94EAF7822B4F5F5F4F4530A2
:102F4000510559F70895BF92CF92DF92EF92FF9209
:102F50000F931F93CF93DF938C01C0901302D090F7
:102F60001402E0901502F0901602809117029091E1
:102F70001802A0911902B0911A02C82AD92AEA2A85
:102F8000FB2ACFE1D0E0BC2ED701C6010C2E04C035
:102F9000B695A795979587950A94D2F780FD0EC0B0
:102FA000219788F7B12C8B2DDF91CF911F910F9135
:102FB000FF90EF90DF90CF90BF900895B8018C2FD5
:102FC0000E94D409019761F3EECFCF93DF93D82FFE
:102FD000C92F0E94A3176D2F7C2FDF91CF910C94E6
:102FE000D4091F93CF93DF93162FD72F909194017D
:102FF000992339F0862F972FDF91CF911F910C9451
:10300000E517882391F0862F972F0E94A317C82FCA
:10301000682F812F9D2F0E944C17612F7D2F8C2FA1
:10302000DF91CF911F910C94D409862F972F0E9486
:103030007A17C82FF2CF80911B02859585958595CB
:10304000089580911B028770089598E0899F9001F0
:103050001124622B60931B020C94641690911B0246
:103060008095892380931B02282F277061F4282FD5
:10307000082E000C330B9217130629F085958595C1
:1030800085950C948616089590911B02977081E0A7
:1030900009F480E00895909112019923E1F0909154
:1030A000710297FF18C0E82FE695E695E695EF3197
:1030B00039F12091000130910101E20FF32FF11D50
:1030C000877021E030E001C0220F8A95EAF7818104
:1030D000822B818308952091000130910101F90133
:1030E00032969FEF40E05191851751F09F3F19F4C0
:1030F000511101C0942F4F5F4E31A9F79F3F09F442
:103100000895290F311D97FD3A95F901828308959D
:1031100090911201992301F19091710297FF1CC0C7
:10312000E82FE695E695E695EF3139F1209100011B
:1031300030910101E20FF32FF11D877021E030E0A3
:10314000A90102C0440F551F8A95E2F7CA01809574
:10315000918189238183089520910001309101019B
:10316000F9013296205E3F4F9191891303C0DF0130
:1031700011971C92E217F307B9F7089581E090E0E8
:10318000E0910001F0910101E80FF91F1082019612
:1031900080329105A9F7089590913F02982B909362
:1031A0003F020895982F909580913F028923809344
:1031B0003F02089510923F02089590913E02982B8D
:1031C00090933E020895982F909580913E02892316
:1031D00080933E02089510923E02089590913D0220
:1031E000982B90933D020895982F909580913D02E1
:1031F000892380933D02089510923D0208958093A3
:103200001C02089510921C02089520910001309133
:103210000101F9013196205E3F4F80E091919111BB
:103220008F5FE217F307D1F70895E0910001F09165
:10323000010180913F028083E0910001F091010142
:10324000808190913E02892B8083E0910001F09172
:103250000101808190913D02892B808390911C0215
:10326000992361F0E0910001F09101018081892BA7
:1032700080830E940519811110921C028091000127
:10328000909101010C942F0D6DEE7EEF90E080E0A7
:103290000E94BC2660E082E090E00E94AA2660E0E6
:1032A00083E090E00E94AA2660E084E090E00E9423
:1032B000AA2660E085E090E00C94AA2690E080E0E9
:1032C0000E94A4269C0181E02D3E3E4F09F080E043
:1032D000089582E090E00C949C26682F82E090E0B4
:1032E0000C94AA2683E090E00C949C26682F83E03F
:1032F00090E00C94AA2684E090E00C949C26682F21
:1033000084E090E00C94AA2680917702843039F111
:103310001092410288E190E020E40FB6F894A8955D
:10332000809360000FBE2093600080E00E94B5098A
:1033300083B7817F846083BF83B7816083BF7894C4
:10334000889583B78E7F83BF0FB6F894A895809138
:103350006000886180936000109260000FBE089545
:1033600008950895CF930E94B0190E945F0C0E94A7
:10337000B119C0E08C2F0E94140D892B31F4CF5F5E
:10338000CA30C1F780E0CF91089581E0FCCF0E9460
:103390001E120E94230D0C94B5091F921FB61F9296
:1033A00011248F939F93AF93BF938091410281111A
:1033B00013C080916D0290916E02A0916F02B09146
:1033C00070024196A11DB11D80936D0290936E0213
:1033D000A0936F02B0937002BF91AF919F918F91B4
:1033E0001F901FBE1F90189582E084BD93E095BD8D
:1033F0009AEF97BD80936E0008952FB7F89480914F
:103400006D0290916E02A0916F02B09170022FBF79
:103410000895CF92DF92EF92FF929C014FB7F894FC
:1034200080916D0290916E02A0916F02B091700236
:103430004FBF6C017D01EE24FF24A90170E060E024
:10344000C416D506E606F70638F0821B930BFF90EC
:10345000EF90DF90CF9008950197F7CF1F921FB69E
:103460001F9211248F939F93AF93BF9380916D020E
:1034700090916E02A0916F02B09170020196A11D11
:10348000B11D80936D0290936E02A0936F02B09372
:103490007002BF91AF919F918F911F901FBE1F909F
:1034A00018950E944522F8942FEF87EA91E6215063
:1034B00080409040E1F700C0000087E090EBDC0125
:1034C0008093800290938102A0938202B093830242
:1034D00088E19CE00FB6F894A895809360000FBE39
:1034E00090936000FFCFAF92BF92CF92DF92EF92A6
:1034F000FF920F931F93CF93C0E0AA24A394B12C03
:10350000E82EF12C8C2F0E94140D6C0110E000E0CD
:10351000C501002E02C0880F991F0A94E2F78C2182
:103520009D21892B99F0602F7C2F80E00E94B809A3
:10353000E816F90659F481E0CF911F910F91FF90A1
:10354000EF90DF90CF90BF90AF9008950F5F1F4F27
:103550000B301105E9F6CF5FCA30A1F680E0ECCF61
:10356000CF93C82F8CE20E94731A882321F08C2FEE
:10357000CF910C94731A80E0CF910895CF93DF938D
:1035800000D000D0CDB7DEB70E945E19811102C015
:103590000E94441995E6998308C00E945F0C8FE34E
:1035A0009CE90197F1F700C00000A981A150A9830F
:1035B000A111F3CF89E20E94B01A811110C18AE2F1
:1035C0000E94B01A81110E94441985E00E94B01A2D
:1035D00081110E94511A0E9469198093400287E06C
:1035E0000E94B01A882371F08BE10E94B01A8823E0
:1035F00009F4D1C090914002892F8D7F91FF8260A4
:1036000080934002809140020E946D190E947B19B4
:1036100090E0909372028093710280EE0E94B01A43
:10362000882341F090917102892F8E7F90FF8160F5
:103630008093710289E30E94B01A882341F090912F
:103640007102892F8D7F91FF82608093710282EEDB
:103650000E94B01A882341F090917102892F8B7FCC
:1036600092FF84608093710286EE0E94B01A8823D4
:1036700041F090917102892F877F93FF886080933A
:10368000710283EE0E94B01A882341F0909171027A
:10369000892F8F7E94FF80618093710285E30E9461
:1036A000B01A882341F090917102892F8F7D95FF88
:1036B00080628093710281E30E94B01A882341F0F6
:1036C00090917102892F8F7B96FF806480937102A5
:1036D00081E10E94B01A882341F090917102892FF4
:1036E00097FB87F9805880937102809171020E9444
:1036F0007F1987E20E94B01A89838EE10E94B01A76
:10370000882319F0B981B260B9838FE10E94B01AA1
:10371000882319F029812460298380E20E94B01A4D
:10372000882319F039813860398381E20E94B01A08
:10373000882319F049814061498382E20E94B01ACE
:10374000882319F059815062598383E20E94B01A8C
:10375000882319F089818064898384E20E94B01AE9
:103760008823B1F199819068998389810E947619A3
:103770003981232F30E050E040E029833A834B83A6
:103780005C83CA01B9010F900F900F900F90DF91E9
:10379000CF910C94BD158EE00E94B01A882339F0A9
:1037A00090914002892F8B7F92FF846029CF80E126
:1037B0000E94B01A90914002882329F0892F877FB8
:1037C00093FF88601DCF892F8E7F90FF816018CF77
:1037D000A981A111CACF0E947219282FCBCF0F90B7
:1037E0000F900F900F90DF91CF9108958091440238
:1037F00080FF12C06091050185E0689FB00111242F
:10380000759567957595679560387105A8F561158B
:103810007105A1F1862F089581FF09C0609105010E
:1038200085E0689FB001112475956795EDCF609193
:10383000050182FD0AC0809145028823D1F0909154
:10384000040160910501891728F085E0689FB001A7
:103850001124DACF869FB001112485E0869F900164
:10386000879F300D1124692F70E0C9010E946E26D8
:10387000CBCF65E070E0CECF8FE7089581E008956B
:103880008091440280FF0CC06091030170E0759547
:103890006795759567956115710549F1862F0895AE
:1038A00081FF06C06091030170E075956795F3CFC5
:1038B0006091030182FD0BC0909145029923A1F014
:1038C0006091020180910301961738F0682F70E033
:1038D0006038710500F38FE70895899FC0011124B6
:1038E00070E00E946E26F4CF61E070E0D7CF81E0F7
:1038F0000895803F31F40E94F61B81958093480221
:103900000895813F19F40E94F61BF8CF823F31F4ED
:103910000E94F61B8195809347020895833F19F416
:103920000E94F61BF8CF893F29F40E94401C809327
:10393000490208958A3F21F40E94401C8195F7CFE7
:103940008B3F31F40E94401C819580934A02089578
:103950008C3F19F40E94401CF8CF843F31F48091D1
:1039600046028160809346020895853F21F480914C
:1039700046028260F7CF863F21F480914602846040
:10398000F1CF873F21F4809146028860EBCF883FDA
:1039900021F4809146028061E5CF8D3F31F4809122
:1039A000440281608093440208958E3F21F4809107
:1039B00044028260F7CF8F3FB9F780914402846060
:1039C000F1CF90914702803F41F48091480287FDFA
:1039D00010924802992371F00895813F29F4809153
:1039E00048021816ACF3F6CF823F81F497FFF2CF6E
:1039F000109247028091480290914902892B909140
:103A00004A02892B49F7109245020895833F19F421
:103A1000191674F3DFCF893F39F4809149021816E3
:103A2000CCF610924902D6CF8A3F29F48091490200
:103A300087FFD0CFF6CF8B3F39F480914A0287FFC2
:103A4000C9CF10924A02C6CF8C3F29F480914A0216
:103A50001816BCF3BFCF843F31F4809146028E7FAD
:103A600080934602B7CF853F21F4809146028D7F37
:103A7000F7CF863F21F4809146028B7FF1CF873FBD
:103A800021F480914602877FEBCF883F21F480911B
:103A900046028F7EE5CF8D3F31F4809144028E7FC8
:103AA0008093440297CF8E3F21F4809144028D7F12
:103AB000F7CF8F3F09F08ECF809144028B7FF0CFFC
:103AC00086E492E00E943A0D0E94FD199093430211
:103AD0008093420208951F93CF93DF9300D000D0CC
:103AE00000D0CDB7DEB780914202909143020E9490
:103AF000091AAC01809145022091060130E0811144
:103B000006C0209107019AE0299F900111244217D5
:103B1000530788F020914702A0914802A983109191
:103B20004902B0914A02BE8321110FC09A2F912BF6
:103B30009B2B09F0B2C026960FB6F894DEBF0FBEDD
:103B4000CDBFDF91CF911F9108958F3F19F08F5F07
:103B500080934502121624F40E94F61B80934702BC
:103B60008091470287FF05C00E94F61B81958093D4
:103B700047022981121624F40E94F61B8093480202
:103B80008091480287FF05C00E94F61B81958093B3
:103B9000480280914702882309F455C030914802B9
:103BA0003D83332309F44FC0282F880F330B440B78
:103BB000550B29833A834B835C83CA01B9010E9468
:103BC000752523E333E343E35FE369837A838B83E0
:103BD0009C8369817A818B819C810E94D92569832C
:103BE0007A838B839C8369817A818B819C810E94FB
:103BF0003D25609347028D81082E000C990BAA0B7E
:103C0000BB0B89839A83AB83BC83BC01CD010E942B
:103C1000752523E333E343E35FE369837A838B838F
:103C20009C8369817A818B819C810E94D9256983DB
:103C30007A838B839C8369817A818B819C810E94AA
:103C40003D2560934802111624F40E94401C809385
:103C500049028091490287FF05C00E94401C81955E
:103C6000809349029E81191624F40E94401C80937F
:103C70004A0280914A0287FF05C00E94401C81953C
:103C800080934A0226960FB6F894DEBF0FBECDBFD2
:103C9000DF91CF911F910C94601D8F3F09F057CF9A
:103CA00068CF85E0E6E4F2E0DF011D928A95E9F74E
:103CB0001092450210924402089580916B0208957B
:103CC000CF93DF9300D00F92CDB7DEB7209177026C
:103CD000243019F523E029838A839B832093E9000C
:103CE0008FEF9091E800815095FD06C095ED9A9573
:103CF000F1F700008111F5CF8091E80085FF0DC03C
:103D000050E040E063E070E0CE0101960E94BD20EB
:103D10008091E8008E778093E8000F900F900F90CD
:103D2000DF91CF910895CF93DF9300D00F92CDB75D
:103D3000DEB79C0180917702843031F582E089837F
:103D4000205831093B832A8383E08093E9008FEF79
:103D50009091E800815095FD06C095ED9A95F1F798
:103D600000008111F5CF8091E80085FF0DC050E083
:103D700040E063E070E0CE0101960E94BD2080919A
:103D8000E8008E778093E8000F900F900F90DF91FE
:103D9000CF910895209177022430F1F422E020930E
:103DA000E9002FEF3091E800215035FD06C035EDD8
:103DB0003A95F1F700002111F5CF2091E80025FF99
:103DC0000BC050E040E065E070E00E94BD208091B3
:103DD000E8008E778093E8000895CF93DF93D82F83
:103DE000C92F809177028430F1F4909112019923C8
:103DF000E9F09091710297FF19C08093E9008FEF6D
:103E00009091E800815095FD06C095E19A95F1F7F3
:103E100000008111F5CF8091E80050E040E060E2C1
:103E200070E085FD1AC0DF91CF91089581E0809305
:103E3000E9008FEF9091E800815095FD06C095ED67
:103E40009A95F1F700008111F5CF8091E80085FF88
:103E5000EACF50E040E068E070E08D2F9C2F0E9498
:103E6000BD208091E8008E778093E80080E2ED2FFE
:103E7000FC2FABE4B2E001900D928A95E1F7D3CF2D
:103E800080917602811109C00E9445220E94A222DF
:103E90008091E20084608093E2000895109276029F
:103EA0000895089508950C94C71942E061EC81E0EB
:103EB0000E94C12142E061EC82E00E94C12142E007
:103EC00061EC83E00E94C12142E261EC84E00C9449
:103ED000C12180917902893089F148F4823009F456
:103EE00094C0833009F44FC0813041F008958A3086
:103EF00009F47BC08B3009F461C008958091780289
:103F0000813A09F03FC08091E800877F8093E80004
:103F100080917C0290917D02892B61F460E28BE4B8
:103F200092E070E00E940C218091E8008B778093F2
:103F3000E800089560E090E080E0F3CF809178029F
:103F4000813201F580917C0290917D02009711F001
:103F50000397C1F48091E800877F8093E800809107
:103F6000E80082FF0BC08091F10080936B0280918A
:103F7000E8008B778093E8000C94F521809177021C
:103F80008111EDCF089580917802813AD9F780911F
:103F90007C0290917D02892BA9F78091E800877FB0
:103FA0008093E8008091E80080FFFCCF80911201AF
:103FB0008093F1008091E8008E77DCCF80917802C9
:103FC000813201F780917C0290917D02892BD1F69C
:103FD0008091E800877F8093E8000E94F52180911E
:103FE0007A02809312010C941E1280917802813221
:103FF00049F68091E800877F8093E8000E94F521D0
:1040000080917B0280936C02089580917802813ABE
:1040100009F0B8CF8091E800877F8093E800809115
:10402000E80080FFFCCF80916C02C2CF84B7877F0D
:1040300084BF0FB6F894A895809160008861809342
:104040006000109260000FBE80E8809361001092C3
:1040500061000E94720D0E9445220E94A22280915E
:10406000E20084608093E20078940E9422250E94FE
:10407000740D88E091E00E941E0D809177028530DA
:1040800019F00E947A0DF9CF0E948419809175026F
:10409000882399F30E94B219882379F30E94A720FC
:1040A000ECCF9C01DA01892F992783309105C1F06B
:1040B00068F48130910509F445C0029761F48DE6FA
:1040C00090E02CE93EE02D933C93089581329105D8
:1040D000E1F0829739F190E080E030E020E0F3CF2A
:1040E000C9019927213059F08230910559F0E8E94A
:1040F000FEE0892B81F7849190E09F01E4CFE0E816
:10410000FEE0F9CFECE6FEE0F6CF643020F7E62FD4
:10411000F0E0EE0FFF1FEC5CFE4F2081318189E063
:1041200090E0D1CF6430B8F670E0FB01EE0FFF1FD6
:10413000E45DFE4F20813181685D7E4FFB0180810F
:1041400090E0C1CF82E190E029E03FE0BCCF80E188
:1041500089BD82E189BD09B400FEFDCF8091D80000
:104160008F7D8093D8008091E00082608093E00092
:104170008091E00081FDFCCF0895AF92BF92CF9275
:10418000DF92FF920F931F93CF93DF936C01EB01AC
:104190008A010E941422F82E811123C001151105F5
:1041A00039F0F80180819181C81BD90BC80ED91E46
:1041B000B12CA12C2097A9F08091E80085FD22C0A8
:1041C0008091E8008E778093E80001151105A1F039
:1041D000F80180819181A80EB91EB182A08285E08C
:1041E000F82E8F2DDF91CF911F910F91FF90DF90CF
:1041F000CF90BF90AF9008950E9414228823D1F2EF
:10420000F82EEFCFF60181916F018093F100219795
:10421000FFEFAF1ABF0ACECFFC01CB0120917E0287
:1042200030917F022617370790F0009729F42091EC
:10423000E8002E772093E80040E0009751F4411108
:1042400008C08091E80082FF31C080E00895C90174
:10425000F3CF209177022223A9F12530A9F12091F3
:10426000E80023FD2DC02091E80022FDEACF209137
:10427000E80020FFE2CF3091F3002091F200009798
:1042800019F02830310558F041E02830310509F0A7
:1042900040E02091E8002E772093E800CECF4191B6
:1042A0004093F10001972F5F3F4FE9CF8091770254
:1042B000882341F0853041F08091E80083FFC1CF31
:1042C00081E0089582E0089583E00895FC01CB0128
:1042D00020917E0230917F022617370790F00097D9
:1042E00029F42091E8002E772093E80040E0009721
:1042F00051F4411108C08091E80082FF32C080E093
:104300000895C901F3CF209177022223B1F125301E
:10431000B1F12091E80023FD2EC02091E80022FD9C
:10432000EACF2091E80020FFE2CF3091F300209106
:10433000F200009719F02830310558F041E028309C
:10434000310509F040E02091E8002E772093E80045
:10435000CECF44914093F100319601972F5F3F4FAC
:10436000E8CF80917702882341F0853041F0809139
:10437000E80083FFC0CF81E0089582E0089583E0E4
:104380000895982F973028F08F708093E90081E08E
:1043900008959093E900242F762F50E0981731F07C
:1043A0007091EC002091ED005091F00021FD02C0D1
:1043B0009F5FE8CF3091EB003E7F3093EB00309170
:1043C000ED003D7F3093ED003091EB003160309394
:1043D000EB007093EC002093ED005093F0002091DF
:1043E000EE0027FDE5CF80E008958091780287FFF9
:1043F00013C08091E80082FF06C08091E8008B77AF
:104400008093E80004C0809177028111F2CF089573
:10441000809177028823D9F38091E80080FFF8CF5C
:104420008091E8008E77ECCF2091E4003091E50098
:1044300095E6A9012091EC00822F817020FF06C033
:104440008091E80080FF06C080E008952091E80098
:1044500022FD1AC080917702882389F0853089F087
:104460008091EB0085FD0FC02091E4003091E500C4
:1044700042175307F9F29150E1F684E0089582E083
:10448000089583E0089581E008950E94B3220E9478
:10449000BB22E0EEF0E0808181608083E8EDF0E017
:1044A00080818F77808319BCA7EDB0E08C918E7FDF
:1044B0008C9380818F7E80831092760208950F9373
:1044C0001F93CF93DF930E94B3220E94BB22C8EDBB
:1044D000D0E088818F77888388818068888388810D
:1044E0008F7D888319BC109277021092730210920C
:1044F00075021092740200EE10E0F80180818B7F4B
:10450000808388818160888342E060E080E00E944F
:10451000C121E1EEF0E080818E7F8083E2EEF0E069
:10452000808181608083808188608083F8018081C0
:104530008E7F8083888180618883DF91CF911F91F6
:104540000F910895E8EDF0E080818F7E8083E7EDA4
:10455000F0E080818160808384E082BF81E080938D
:1045600076020C945F22E8EDF0E080818E7F8083FC
:104570001092E20008951092DA001092E10008957E
:104580001F920F920FB60F9211242F933F934F93C8
:104590005F936F937F938F939F93AF93BF93EF93AB
:1045A000FF938091E10082FF0BC08091E20082FFC7
:1045B00007C08091E1008B7F8093E1000E9421255C
:1045C0008091DA0080FF19C08091D80080FF15C06B
:1045D0008091DA008E7F8093DA008091D90080FF8D
:1045E00094C080E189BD82E189BD09B400FEFDCFA0
:1045F00081E0809377020E94401F8091E10080FF5C
:1046000019C08091E20080FF15C08091E2008E7F8A
:104610008093E2008091E20080618093E2008091CB
:10462000D80080628093D80019BC85E0809377021F
:104630000E94521F8091E10084FF29C08091E20016
:1046400084FF25C080E189BD82E189BD09B400FEF7
:10465000FDCF8091D8008F7D8093D8008091E100BC
:104660008F7E8093E1008091E2008F7E8093E20054
:104670008091E20081608093E20080917302882340
:1046800009F449C084E0809377020E94531F80910F
:10469000E10083FF29C08091E20083FF25C0809163
:1046A000E100877F8093E10082E08093770210929F
:1046B00073028091E1008E7F8093E1008091E2009F
:1046C0008E7F8093E2008091E20080618093E2001F
:1046D00042E060E080E00E94C1218091F0008860AB
:1046E0008093F0000E94511FFF91EF91BF91AF9115
:1046F0009F918F917F916F915F914F913F912F91FA
:104700000F900FBE0F901F90189519BC1092770252
:104710000E944E1F72CF8091E30087FD02C081E0AE
:10472000B2CF83E0B0CF1F920F920FB60F92112439
:104730002F933F934F935F936F937F938F939F93A9
:10474000AF93BF93CF93DF93EF93FF93D091E900A3
:10475000DF708091EC00C82FC17080FDC0E810921E
:10476000E9008091F000877F8093F00078940E94A8
:10477000D7231092E9008091F00088608093F000C8
:10478000CD2BCF70C093E900FF91EF91DF91CF91D6
:10479000BF91AF919F918F917F916F915F914F9159
:1047A0003F912F910F900FBE0F901F9018951F9360
:1047B000CF93DF93CDB7DEB7AA970FB6F894DEBFDD
:1047C0000FBECDBF88E792E0FC0101962091F10079
:1047D000208322E080389207B9F70E94691F8091F8
:1047E000E80083FF16C180917802909179029A3097
:1047F00008F00FC1E92FF0E0EA50F94D0C94822641
:10480000803881F0823809F004C180917C028F7079
:104810008093E9008091EB0085FB882780F9109256
:10482000E90006C080917402909175029111826036
:104830009091E800977F9093E8008093F1001092A8
:10484000F1008091E8008E77E0C0882309F4CEC0A3
:10485000823009F0DEC080917A028111D1C080914E
:104860007C028F7009F4D5C08093E9002091EB00A1
:1048700020FFC6C0933031F48091EB0080628093BA
:10488000EB00BEC09091EB0090619093EB0021E0B3
:1048900030E001C0220F8A95EAF72093EA001092D7
:1048A000EA008091EB008860EACF8111B2C01091DC
:1048B0007A021F778091E3008078812B8093E30058
:1048C0008091E800877F8093E8000E94F521809125
:1048D000E80080FFFCCF8091E30080688093E300D4
:1048E00082E0111183E08093770293C08058823078
:1048F00008F08FC080917A0290917B028C3D23E07A
:104900009207A1F583E08A838AE289834FB7F894FE
:10491000DE01139620E03EE051E2E32FF0E05093F9
:104920005700E49120FF03C0E295EF703F5FEF7006
:104930008E2F90E0EA30C0F0C7968D939D932F5F45
:10494000243159F74FBF8091E800877F8093E800BA
:104950006AE270E0CE0101960E940C218091E8008D
:104960008B778093E80055C0C096E7CFAE014F5FCC
:104970005F4F60917C020E945120BC01892B09F499
:1049800048C08091E800877F8093E80089819A8100
:104990000E946621E3CF8038E1F58091E800877FAF
:1049A0008093E800809173028093F1004ACF8111D7
:1049B00030C090917A02923060F58091E800877F54
:1049C0008093E800909373020E94F5218091730216
:1049D000882311F084E005C08091E30087FDFACFC1
:1049E00081E0809377020E94551F13C080917A0264
:1049F000813079F481E0933009F080E08093750292
:104A00001092E9008091E800877F8093E8000E947F
:104A1000F5218091E80083FF0AC08091E800877F3C
:104A20008093E8008091EB0080628093EB00AA966F
:104A30000FB6F894DEBF0FBECDBFDF91CF911F91AF
:104A400008950895CF93809177028823A1F0C091B3
:104A5000E900CF709091EC00892F817090FD80E883
:104A6000C82B1092E9008091E80083FD0E94D723B3
:104A7000CF70C093E900CF9108950E9444256894B7
:104A8000B1110C94D32508950E94B82588F09F5742
:104A900098F0B92F9927B751B0F0E1F0660F771F62
:104AA000881F991F1AF0BA95C9F714C0B13091F058
:104AB0000E94D225B1E008950C94D225672F782F5B
:104AC0008827B85F39F0B93FCCF38695779567951D
:104AD000B395D9F73EF490958095709561957F4F89
:104AE0008F4F9F4F0895E89409C097FB3EF490952F
:104AF0008095709561957F4F8F4F9F4F9923A9F0B7
:104B0000F92F96E9BB279395F69587957795679545
:104B1000B795F111F8CFFAF4BB0F11F460FF1BC089
:104B20006F5F7F4F8F4F9F4F16C0882311F096E91C
:104B300011C0772321F09EE8872F762F05C06623CA
:104B400071F096E8862F70E060E02AF09A95660F83
:104B5000771F881FDAF7880F9695879597F908953C
:104B600057FD9058440F551F59F05F3F71F047951E
:104B7000880F97FB991F61F09F3F79F08795089503
:104B8000121613061406551FF2CF4695F1DF08C022
:104B9000161617061806991FF1CF8695710561053F
:104BA00008940895E894BB2766277727CB0197F9E7
:104BB00008950E94EC250C945D260E944F2638F043
:104BC0000E94562620F0952311F00C9446260C9452
:104BD0004C2611240C94D3250E94B02570F3959F88
:104BE000C1F3950F50E0551F629FF001729FBB27E4
:104BF000F00DB11D639FAA27F00DB11DAA1F649F80
:104C00006627B00DA11D661F829F2227B00DA11D32
:104C1000621F739FB00DA11D621F839FA00D611DB8
:104C2000221F749F3327A00D611D231F849F600DD9
:104C3000211D822F762F6A2F11249F5750409AF002
:104C4000F1F088234AF0EE0FFF1FBB1F661F771F8E
:104C5000881F91505040A9F79E3F510580F00C9459
:104C600046260C94D3255F3FE4F3983ED4F3869513
:104C700077956795B795F795E7959F5FC1F7FE2BF9
:104C8000880F911D9695879597F9089597F99F67D5
:104C900080E870E060E008959FEF80EC08950024C4
:104CA0000A941616170618060906089500240A9491
:104CB00012161306140605060895092E0394000C17
:104CC00011F4882352F0BB0F40F4BF2B11F460FFA6
:104CD00004C06F5F7F4F8F4F9F4F089597FB072E44
:104CE00016F4009407D077FD09D00E94882607FCAF
:104CF00005D03EF4909581959F4F089570956195EC
:104D00007F4F0895EE0FFF1F0590F491E02D099459
:104D1000AA1BBB1B51E107C0AA1FBB1FA617B707E1
:104D200010F0A61BB70B881F991F5A95A9F78095FD
:104D30009095BC01CD010895F999FECF92BD81BD3A
:104D4000F89A992780B50895A8E1B0E042E050E0D4
:104D50000C94C426262FF999FECF92BD81BDF89AF6
:104D6000019700B4021639F01FBA20BD0FB6F894AF
:104D7000FA9AF99A0FBE08950196272F0E94AB2642
:104D80000C94AA26DC01CB01FC01F999FECF06C0E8
:104D9000F2BDE1BDF89A319600B40D9241505040F9
:104DA000B8F70895F894FFCF20092C093009340989
:104DB00038093C094009440948094C09500954097B
:104DC00058095C096009640968096C09C90FC90FB1
:104DD0002110211065108110F90FF90F8C10F90FB7
:104DE00054115411BF11F90FF90FC81100242524D3
:104DF000092525240925552476240925CB24D724E3
:104E00001D022808140A321E5D1EED1ECA1E931EC6
:104E1000601E01F0F1F4F5F6F79392919037953416
:104E20003536666730323133404D3639D70F8A0F09
:0C4E3000540F1B0FAE0EC70EE00EF90E63
:00000001FF
